{
    "contractName": "DecentraVotes",
    "abi": [
        {
            "inputs": [],
            "stateMutability": "nonpayable",
            "type": "constructor"
        },
        {
            "anonymous": false,
            "inputs": [
                {
                    "indexed": true,
                    "internalType": "address",
                    "name": "owner",
                    "type": "address"
                },
                {
                    "indexed": true,
                    "internalType": "address",
                    "name": "spender",
                    "type": "address"
                },
                {
                    "indexed": false,
                    "internalType": "uint256",
                    "name": "value",
                    "type": "uint256"
                }
            ],
            "name": "Approval",
            "type": "event"
        },
        {
            "anonymous": false,
            "inputs": [
                {
                    "indexed": true,
                    "internalType": "bytes32",
                    "name": "categoryId",
                    "type": "bytes32"
                },
                {
                    "indexed": false,
                    "internalType": "string",
                    "name": "category",
                    "type": "string"
                }
            ],
            "name": "CategoryCreated",
            "type": "event"
        },
        {
            "anonymous": false,
            "inputs": [
                {
                    "indexed": true,
                    "internalType": "bytes32",
                    "name": "contentId",
                    "type": "bytes32"
                },
                {
                    "indexed": false,
                    "internalType": "string",
                    "name": "contentUri",
                    "type": "string"
                }
            ],
            "name": "ContentAdded",
            "type": "event"
        },
        {
            "anonymous": false,
            "inputs": [
                {
                    "indexed": true,
                    "internalType": "bytes32",
                    "name": "postId",
                    "type": "bytes32"
                },
                {
                    "indexed": true,
                    "internalType": "address",
                    "name": "postOwner",
                    "type": "address"
                },
                {
                    "indexed": true,
                    "internalType": "bytes32",
                    "name": "parentId",
                    "type": "bytes32"
                },
                {
                    "indexed": false,
                    "internalType": "bytes32",
                    "name": "contentId",
                    "type": "bytes32"
                },
                {
                    "indexed": false,
                    "internalType": "bytes32",
                    "name": "categoryId",
                    "type": "bytes32"
                }
            ],
            "name": "PostCreated",
            "type": "event"
        },
        {
            "anonymous": false,
            "inputs": [
                {
                    "indexed": true,
                    "internalType": "address",
                    "name": "from",
                    "type": "address"
                },
                {
                    "indexed": true,
                    "internalType": "address",
                    "name": "to",
                    "type": "address"
                },
                {
                    "indexed": false,
                    "internalType": "uint256",
                    "name": "value",
                    "type": "uint256"
                }
            ],
            "name": "Transfer",
            "type": "event"
        },
        {
            "anonymous": false,
            "inputs": [
                {
                    "indexed": true,
                    "internalType": "bytes32",
                    "name": "postId",
                    "type": "bytes32"
                },
                {
                    "indexed": true,
                    "internalType": "address",
                    "name": "postOwner",
                    "type": "address"
                },
                {
                    "indexed": true,
                    "internalType": "address",
                    "name": "voter",
                    "type": "address"
                },
                {
                    "indexed": false,
                    "internalType": "uint80",
                    "name": "reputationPostOwner",
                    "type": "uint80"
                },
                {
                    "indexed": false,
                    "internalType": "uint80",
                    "name": "reputationVoter",
                    "type": "uint80"
                },
                {
                    "indexed": false,
                    "internalType": "int40",
                    "name": "postVotes",
                    "type": "int40"
                },
                {
                    "indexed": false,
                    "internalType": "bool",
                    "name": "up",
                    "type": "bool"
                },
                {
                    "indexed": false,
                    "internalType": "uint8",
                    "name": "reputationAmount",
                    "type": "uint8"
                }
            ],
            "name": "Voted",
            "type": "event"
        },
        {
            "inputs": [],
            "name": "_totalSupply",
            "outputs": [
                {
                    "internalType": "uint256",
                    "name": "",
                    "type": "uint256"
                }
            ],
            "stateMutability": "view",
            "type": "function"
        },
        {
            "inputs": [
                {
                    "internalType": "string",
                    "name": "_category",
                    "type": "string"
                }
            ],
            "name": "addCategory",
            "outputs": [],
            "stateMutability": "nonpayable",
            "type": "function"
        },
        {
            "inputs": [
                {
                    "internalType": "address",
                    "name": "tokenOwner",
                    "type": "address"
                },
                {
                    "internalType": "address",
                    "name": "spender",
                    "type": "address"
                }
            ],
            "name": "allowance",
            "outputs": [
                {
                    "internalType": "uint256",
                    "name": "remaining",
                    "type": "uint256"
                }
            ],
            "stateMutability": "view",
            "type": "function"
        },
        {
            "inputs": [
                {
                    "internalType": "address",
                    "name": "spender",
                    "type": "address"
                },
                {
                    "internalType": "uint256",
                    "name": "tokens",
                    "type": "uint256"
                }
            ],
            "name": "approve",
            "outputs": [
                {
                    "internalType": "bool",
                    "name": "success",
                    "type": "bool"
                }
            ],
            "stateMutability": "nonpayable",
            "type": "function"
        },
        {
            "inputs": [
                {
                    "internalType": "address",
                    "name": "tokenOwner",
                    "type": "address"
                }
            ],
            "name": "balanceOf",
            "outputs": [
                {
                    "internalType": "uint256",
                    "name": "balance",
                    "type": "uint256"
                }
            ],
            "stateMutability": "view",
            "type": "function"
        },
        {
            "inputs": [
                {
                    "internalType": "bytes32",
                    "name": "_parentId",
                    "type": "bytes32"
                },
                {
                    "internalType": "string",
                    "name": "_contentUri",
                    "type": "string"
                },
                {
                    "internalType": "bytes32",
                    "name": "_categoryId",
                    "type": "bytes32"
                }
            ],
            "name": "createPost",
            "outputs": [],
            "stateMutability": "nonpayable",
            "type": "function"
        },
        {
            "inputs": [],
            "name": "decimals",
            "outputs": [
                {
                    "internalType": "uint8",
                    "name": "",
                    "type": "uint8"
                }
            ],
            "stateMutability": "view",
            "type": "function"
        },
        {
            "inputs": [
                {
                    "internalType": "bytes32",
                    "name": "_categoryId",
                    "type": "bytes32"
                }
            ],
            "name": "getCategory",
            "outputs": [
                {
                    "internalType": "string",
                    "name": "",
                    "type": "string"
                }
            ],
            "stateMutability": "view",
            "type": "function"
        },
        {
            "inputs": [
                {
                    "internalType": "bytes32",
                    "name": "_contentId",
                    "type": "bytes32"
                }
            ],
            "name": "getContent",
            "outputs": [
                {
                    "internalType": "string",
                    "name": "",
                    "type": "string"
                }
            ],
            "stateMutability": "view",
            "type": "function"
        },
        {
            "inputs": [
                {
                    "internalType": "bytes32",
                    "name": "_postId",
                    "type": "bytes32"
                }
            ],
            "name": "getPost",
            "outputs": [
                {
                    "internalType": "address",
                    "name": "",
                    "type": "address"
                },
                {
                    "internalType": "bytes32",
                    "name": "",
                    "type": "bytes32"
                },
                {
                    "internalType": "bytes32",
                    "name": "",
                    "type": "bytes32"
                },
                {
                    "internalType": "int72",
                    "name": "",
                    "type": "int72"
                },
                {
                    "internalType": "bytes32",
                    "name": "",
                    "type": "bytes32"
                }
            ],
            "stateMutability": "view",
            "type": "function"
        },
        {
            "inputs": [
                {
                    "internalType": "address",
                    "name": "_address",
                    "type": "address"
                },
                {
                    "internalType": "bytes32",
                    "name": "_categoryID",
                    "type": "bytes32"
                }
            ],
            "name": "getReputation",
            "outputs": [
                {
                    "internalType": "uint80",
                    "name": "",
                    "type": "uint80"
                }
            ],
            "stateMutability": "view",
            "type": "function"
        },
        {
            "inputs": [],
            "name": "manager",
            "outputs": [
                {
                    "internalType": "address",
                    "name": "",
                    "type": "address"
                }
            ],
            "stateMutability": "view",
            "type": "function"
        },
        {
            "inputs": [],
            "name": "name",
            "outputs": [
                {
                    "internalType": "string",
                    "name": "",
                    "type": "string"
                }
            ],
            "stateMutability": "view",
            "type": "function"
        },
        {
            "inputs": [],
            "name": "symbol",
            "outputs": [
                {
                    "internalType": "string",
                    "name": "",
                    "type": "string"
                }
            ],
            "stateMutability": "view",
            "type": "function"
        },
        {
            "inputs": [],
            "name": "totalSupply",
            "outputs": [
                {
                    "internalType": "uint256",
                    "name": "",
                    "type": "uint256"
                }
            ],
            "stateMutability": "view",
            "type": "function"
        },
        {
            "inputs": [
                {
                    "internalType": "address",
                    "name": "to",
                    "type": "address"
                },
                {
                    "internalType": "uint256",
                    "name": "tokens",
                    "type": "uint256"
                }
            ],
            "name": "transfer",
            "outputs": [
                {
                    "internalType": "bool",
                    "name": "success",
                    "type": "bool"
                }
            ],
            "stateMutability": "nonpayable",
            "type": "function"
        },
        {
            "inputs": [
                {
                    "internalType": "address",
                    "name": "from",
                    "type": "address"
                },
                {
                    "internalType": "address",
                    "name": "to",
                    "type": "address"
                },
                {
                    "internalType": "uint256",
                    "name": "tokens",
                    "type": "uint256"
                }
            ],
            "name": "transferFrom",
            "outputs": [
                {
                    "internalType": "bool",
                    "name": "success",
                    "type": "bool"
                }
            ],
            "stateMutability": "nonpayable",
            "type": "function"
        },
        {
            "inputs": [
                {
                    "internalType": "bytes32",
                    "name": "_postId",
                    "type": "bytes32"
                },
                {
                    "internalType": "uint8",
                    "name": "_reputationTaken",
                    "type": "uint8"
                }
            ],
            "name": "voteDown",
            "outputs": [],
            "stateMutability": "nonpayable",
            "type": "function"
        },
        {
            "inputs": [
                {
                    "internalType": "bytes32",
                    "name": "_postId",
                    "type": "bytes32"
                },
                {
                    "internalType": "uint8",
                    "name": "_reputationAdded",
                    "type": "uint8"
                }
            ],
            "name": "voteUp",
            "outputs": [],
            "stateMutability": "nonpayable",
            "type": "function"
        }
    ],
    "bytecode": "60806040523480156200001157600080fd5b5060408051808201909152600380825262504e4760e81b60209092019182526200003e91600091620000f5565b5060408051808201909152600f8082526e2830b733b2b0902220a79021b7b4b760891b60209092019182526200007791600191620000f5565b506002805460ff19169055620186a06003819055600480546001600160a01b031916329081179091556000818152600a602052604080822084905551919290917fddf252ad1be2c89b69c2b068fc378daa952ba7f163c4a11628f55a4df523b3ef91620000e79190815260200190565b60405180910390a3620001d8565b82805462000103906200019b565b90600052602060002090601f01602090048101928262000127576000855562000172565b82601f106200014257805160ff191683800117855562000172565b8280016001018555821562000172579182015b828111156200017257825182559160200191906001019062000155565b506200018092915062000184565b5090565b5b8082111562000180576000815560010162000185565b600181811c90821680620001b057607f821691505b60208210811415620001d257634e487b7160e01b600052602260045260246000fd5b50919050565b61174380620001e86000396000f3fe608060405234801561001057600080fd5b50600436106101215760003560e01c8063481c6a75116100ad578063a9059cbb11610071578063a9059cbb146102df578063b2fae272146102f2578063dd62ed3e14610349578063e1957bf314610382578063f2287b3e1461039557600080fd5b8063481c6a75146101f35780635cc150011461021e57806370a082311461023157806393e43bbe1461025a57806395d89b41146102d757600080fd5b80632e0dcbf7116100f45780632e0dcbf714610190578063313ce567146101a557806333032b09146101c45780633eaaf86b146101d7578063473b084c146101e057600080fd5b806306fdde0314610126578063095ea7b31461014457806318160ddd1461016757806323b872dd1461017d575b600080fd5b61012e6103a8565b60405161013b91906111b7565b60405180910390f35b610157610152366004611228565b610436565b604051901515815260200161013b565b61016f6104a3565b60405190815260200161013b565b61015761018b366004611252565b6104e1565b6101a361019e3660046112d7565b61064c565b005b6002546101b29060ff1681565b60405160ff909116815260200161013b565b6101a36101d2366004611319565b61075e565b61016f60035481565b61012e6101ee36600461136c565b6108e3565b600454610206906001600160a01b031681565b6040516001600160a01b03909116815260200161013b565b61012e61022c36600461136c565b610985565b61016f61023f366004611385565b6001600160a01b03166000908152600a602052604090205490565b6102a261026836600461136c565b600090815260086020526040902080546001820154600283015460038401546004948501546001600160a01b039094169592949193910b91565b604080516001600160a01b03909616865260208601949094529284019190915260080b6060830152608082015260a00161013b565b61012e6109a2565b6101576102ed366004611228565b6109af565b610331610300366004611228565b6001600160a01b0391909116600090815260056020908152604080832093835292905220546001600160501b031690565b6040516001600160501b03909116815260200161013b565b61016f6103573660046113a0565b6001600160a01b039182166000908152600b6020908152604080832093909416825291909152205490565b6101a36103903660046113d3565b610aa5565b6101a36103a33660046113d3565b610da1565b600180546103b590611409565b80601f01602080910402602001604051908101604052809291908181526020018280546103e190611409565b801561042e5780601f106104035761010080835404028352916020019161042e565b820191906000526020600020905b81548152906001019060200180831161041157829003601f168201915b505050505081565b336000818152600b602090815260408083206001600160a01b038716808552925280832085905551919290917f8c5be1e5ebec7d5bd14f71427d1e84f3dd0314c0f7b2291e5b200ac8c7c3b925906104919086815260200190565b60405180910390a35060015b92915050565b6000808052600a6020527f13da86008ba1c6922daee3e07db95305ef49ebced9f5467a0b8613fcc6b343e3546003546104dc919061145a565b905090565b6001600160a01b0383166000908152600a602052604081205482111561054e5760405162461bcd60e51b815260206004820152601d60248201527f6e6f7420656e6f75676820746f6b656e7320746f207472616e7366657200000060448201526064015b60405180910390fd5b6001600160a01b0384166000908152600a60205260409020546105719083611073565b6001600160a01b0385166000908152600a6020908152604080832093909355600b8152828220338352905220546105a89083611073565b6001600160a01b038086166000908152600b602090815260408083203384528252808320949094559186168152600a90915220546105e69083611086565b6001600160a01b038085166000818152600a602052604090819020939093559151908616907fddf252ad1be2c89b69c2b068fc378daa952ba7f163c4a11628f55a4df523b3ef9061063a9086815260200190565b60405180910390a35060019392505050565b6004546001600160a01b031633146106d75760405162461bcd60e51b815260206004820152604260248201527f4f6e6c7920746865206d616e616765722063616e20637265617465204361746560448201527f676f726965732c2070726f706f73652061206e6577206f6e6520746f20766f74606482015261652160f01b608482015260a401610545565b600082826040516020016106ec929190611471565b60408051601f19818403018152918152815160209283012060008181526006909352912090915061071e90848461111e565b50807f42588c2617ffb1b380decf15f2134bd59bb002295bda52fe6e5bf92fc504d2498484604051610751929190611471565b60405180910390a2505050565b336000818152600a602052604090205461078a5760405162461bcd60e51b8152600401610545906114a0565b6000848460405160200161079f929190611471565b60408051808303601f190181528282528051602091820120606086901b6bffffffffffffffffffffffff191682850152603484018a905260548085018290528351808603909101815260749094018352835193820193909320600084815260079092529190209192509061081490878761111e565b506000818152600860205260409081902080546001600160a01b0319166001600160a01b03861617815560018101899055600281018490556004018590555182907ffb281bb05c5ef4b3a5f374fffc0b351fe69873776a9d6c289682e1929cb4f080906108849089908990611471565b60405180910390a286836001600160a01b0316827fdd56be40fa15d802b8ddf46fb1480b3bef291828e21d8c168f8f96368716d7e485886040516108d2929190918252602082015260400190565b60405180910390a450505050505050565b600081815260066020526040902080546060919061090090611409565b80601f016020809104026020016040519081016040528092919081815260200182805461092c90611409565b80156109795780601f1061094e57610100808354040283529160200191610979565b820191906000526020600020905b81548152906001019060200180831161095c57829003601f168201915b50505050509050919050565b600081815260076020526040902080546060919061090090611409565b600080546103b590611409565b336000908152600a6020526040812054821115610a0e5760405162461bcd60e51b815260206004820152601d60248201527f6e6f7420656e6f75676820746f6b656e7320746f207472616e736665720000006044820152606401610545565b336000908152600a6020526040902054610a289083611073565b336000908152600a6020526040808220929092556001600160a01b03851681522054610a549083611086565b6001600160a01b0384166000818152600a60205260409081902092909255905133907fddf252ad1be2c89b69c2b068fc378daa952ba7f163c4a11628f55a4df523b3ef906104919086815260200190565b336000818152600a6020526040902054610ad15760405162461bcd60e51b8152600401610545906114a0565b6000838152600860209081526040808320600481015490546001600160a01b03868116865260098552838620898752909452919093205491169060ff1615610b2b5760405162461bcd60e51b8152600401610545906114d7565b610b36838386611092565b1515600114610bad5760405162461bcd60e51b815260206004820152603960248201527f5468697320616464726573732063616e6e6f742074616b65207468697320616d60448201527f6f756e74206f662072657075746174696f6e20706f696e7473000000000000006064820152608401610545565b6000858152600860205260408120600301805460019290610bd290849060040b611518565b825464ffffffffff9182166101009390930a9283029190920219909116179055506001600160a01b038116600090815260056020908152604080832085845290915290205460ff85166001600160501b039091161015610c65576001600160a01b03811660009081526005602090815260408083208584529091528120805469ffffffffffffffffffff19169055610cc8565b6001600160a01b03811660009081526005602090815260408083208584529091528120805460ff87169290610ca49084906001600160501b0316611564565b92506101000a8154816001600160501b0302191690836001600160501b0316021790555b506001600160a01b0383811660008181526009602090815260408083208a84528252808320805460ff1916600117905593851680835260058083528584208885528352858420548585529083528584208885528352858420548b8552600884528685206003015487516001600160501b039384168152929091169382019390935260049290920b94820194909452606081019190915260ff8716608082015290919087907f01d21e353645a36d22513edbfe86f2d524130c25320a11ed375056ea54b427af9060a0015b60405180910390a45050505050565b336000818152600a6020526040902054610dcd5760405162461bcd60e51b8152600401610545906114a0565b6000838152600860205260409020600481015490546001600160a01b03908116908316811415610e3f5760405162461bcd60e51b815260206004820152601e60248201527f796f752063616e6e6f7420766f746520796f7572206f776e20706f73747300006044820152606401610545565b6001600160a01b038316600090815260096020908152604080832088845290915290205460ff1615610e835760405162461bcd60e51b8152600401610545906114d7565b610e8e838386611092565b1515600114610f055760405162461bcd60e51b815260206004820152603860248201527f5468697320616464726573732063616e6e6f7420616464207468697320616d6f60448201527f756e74206f662072657075746174696f6e20706f696e747300000000000000006064820152608401610545565b6000858152600860205260408120600301805460019290610f2a90849060040b61158c565b825464ffffffffff9182166101009390930a9283029190920219909116179055506001600160a01b03811660009081526005602090815260408083208584529091528120805460ff87169290610f8a9084906001600160501b03166115d7565b82546101009290920a6001600160501b038181021990931691831602179091556001600160a01b0385811660008181526009602090815260408083208c84528252808320805460ff1916600190811790915594881680845260058084528285208b86528452828520548686529084528285208b86528452828520548e865260088552948390206003015483519189168252949097169287019290925260049290920b91850191909152606084019290925260ff8816608084015292509087907f01d21e353645a36d22513edbfe86f2d524130c25320a11ed375056ea54b427af9060a001610d92565b600061107f828461145a565b9392505050565b600061107f8284611602565b6001600160a01b03831660009081526005602090815260408083208584529091528120546001600160501b031660028110156110e9578260ff166001146110dd5760009150816110e3565b60019150815b50611116565b6001600160501b0381166110fe8460026116fe565b111561110e576000915081611114565b60019150815b505b509392505050565b82805461112a90611409565b90600052602060002090601f01602090048101928261114c5760008555611192565b82601f106111655782800160ff19823516178555611192565b82800160010185558215611192579182015b82811115611192578235825591602001919060010190611177565b5061119e9291506111a2565b5090565b5b8082111561119e57600081556001016111a3565b600060208083528351808285015260005b818110156111e4578581018301518582016040015282016111c8565b818111156111f6576000604083870101525b50601f01601f1916929092016040019392505050565b80356001600160a01b038116811461122357600080fd5b919050565b6000806040838503121561123b57600080fd5b6112448361120c565b946020939093013593505050565b60008060006060848603121561126757600080fd5b6112708461120c565b925061127e6020850161120c565b9150604084013590509250925092565b60008083601f8401126112a057600080fd5b50813567ffffffffffffffff8111156112b857600080fd5b6020830191508360208285010111156112d057600080fd5b9250929050565b600080602083850312156112ea57600080fd5b823567ffffffffffffffff81111561130157600080fd5b61130d8582860161128e565b90969095509350505050565b6000806000806060858703121561132f57600080fd5b84359350602085013567ffffffffffffffff81111561134d57600080fd5b6113598782880161128e565b9598909750949560400135949350505050565b60006020828403121561137e57600080fd5b5035919050565b60006020828403121561139757600080fd5b61107f8261120c565b600080604083850312156113b357600080fd5b6113bc8361120c565b91506113ca6020840161120c565b90509250929050565b600080604083850312156113e657600080fd5b82359150602083013560ff811681146113fe57600080fd5b809150509250929050565b600181811c9082168061141d57607f821691505b6020821081141561143e57634e487b7160e01b600052602260045260246000fd5b50919050565b634e487b7160e01b600052601160045260246000fd5b60008282101561146c5761146c611444565b500390565b60208152816020820152818360408301376000818301604090810191909152601f909201601f19160101919050565b60208082526019908201527f596f7520646f6e2774206861766520616e7920746f6b656e7300000000000000604082015260600190565b60208082526021908201527f53656e64657220616c726561647920766f74656420696e207468697320706f736040820152601d60fa1b606082015260800190565b60008160040b8360040b6000811281647fffffffff190183128115161561154157611541611444565b81647fffffffff01831381161561155a5761155a611444565b5090039392505050565b60006001600160501b038381169083168181101561158457611584611444565b039392505050565b60008160040b8360040b6000821282647fffffffff038213811516156115b4576115b4611444565b82647fffffffff190382128116156115ce576115ce611444565b50019392505050565b60006001600160501b038083168185168083038211156115f9576115f9611444565b01949350505050565b6000821982111561161557611615611444565b500190565b600181815b8085111561165557816000190482111561163b5761163b611444565b8085161561164857918102915b93841c939080029061161f565b509250929050565b60008261166c5750600161049d565b816116795750600061049d565b816001811461168f5760028114611699576116b5565b600191505061049d565b60ff8411156116aa576116aa611444565b50506001821b61049d565b5060208310610133831016604e8410600b84101617156116d8575081810a61049d565b6116e2838361161a565b80600019048211156116f6576116f6611444565b029392505050565b600061107f60ff84168361165d56fea26469706673582212201a92ee30ab3b7ff3385513aa9bf79f56848019722693e1b17df8c633c995591c64736f6c634300080c0033",
    "sourcePath": "c:/Work/DAO/ethereum/contracts/Campaign.sol",
    "compiler": {
        "name": "solc",
        "version": "0.8.12+commit.f00d7308"
    },
    "functionHashes": {
        "_totalSupply()": "3eaaf86b",
        "addCategory(string)": "2e0dcbf7",
        "allowance(address,address)": "dd62ed3e",
        "approve(address,uint256)": "095ea7b3",
        "balanceOf(address)": "70a08231",
        "createPost(bytes32,string,bytes32)": "33032b09",
        "decimals()": "313ce567",
        "getCategory(bytes32)": "473b084c",
        "getContent(bytes32)": "5cc15001",
        "getPost(bytes32)": "93e43bbe",
        "getReputation(address,bytes32)": "b2fae272",
        "manager()": "481c6a75",
        "name()": "06fdde03",
        "symbol()": "95d89b41",
        "totalSupply()": "18160ddd",
        "transfer(address,uint256)": "a9059cbb",
        "transferFrom(address,address,uint256)": "23b872dd",
        "voteDown(bytes32,uint8)": "e1957bf3",
        "voteUp(bytes32,uint8)": "f2287b3e"
    },
    "gasEstimates": {
        "creation": {
            "codeDepositCost": "1191000",
            "executionCost": "infinite",
            "totalCost": "infinite"
        },
        "external": {
            "_totalSupply()": "2384",
            "addCategory(string)": "infinite",
            "allowance(address,address)": "infinite",
            "approve(address,uint256)": "24546",
            "balanceOf(address)": "2604",
            "createPost(bytes32,string,bytes32)": "infinite",
            "decimals()": "2358",
            "getCategory(bytes32)": "infinite",
            "getContent(bytes32)": "infinite",
            "getPost(bytes32)": "11126",
            "getReputation(address,bytes32)": "2719",
            "manager()": "2360",
            "name()": "infinite",
            "symbol()": "infinite",
            "totalSupply()": "4571",
            "transfer(address,uint256)": "infinite",
            "transferFrom(address,address,uint256)": "infinite",
            "voteDown(bytes32,uint8)": "11934",
            "voteUp(bytes32,uint8)": "12000"
        },
        "internal": {
            "validateReputationChange(address,bytes32,uint8)": "2628"
        }
    }
}