{
    "contractName": "PangeaVotes",
    "abi": [
        {
            "inputs": [],
            "stateMutability": "nonpayable",
            "type": "constructor"
        },
        {
            "anonymous": false,
            "inputs": [
                {
                    "indexed": true,
                    "internalType": "address",
                    "name": "owner",
                    "type": "address"
                },
                {
                    "indexed": true,
                    "internalType": "address",
                    "name": "spender",
                    "type": "address"
                },
                {
                    "indexed": false,
                    "internalType": "uint256",
                    "name": "value",
                    "type": "uint256"
                }
            ],
            "name": "Approval",
            "type": "event"
        },
        {
            "anonymous": false,
            "inputs": [
                {
                    "indexed": true,
                    "internalType": "bytes32",
                    "name": "categoryId",
                    "type": "bytes32"
                },
                {
                    "indexed": false,
                    "internalType": "string",
                    "name": "category",
                    "type": "string"
                }
            ],
            "name": "CategoryCreated",
            "type": "event"
        },
        {
            "anonymous": false,
            "inputs": [
                {
                    "indexed": true,
                    "internalType": "bytes32",
                    "name": "contentId",
                    "type": "bytes32"
                },
                {
                    "indexed": false,
                    "internalType": "string",
                    "name": "contentUri",
                    "type": "string"
                }
            ],
            "name": "ContentAdded",
            "type": "event"
        },
        {
            "anonymous": false,
            "inputs": [
                {
                    "indexed": true,
                    "internalType": "bytes32",
                    "name": "postId",
                    "type": "bytes32"
                },
                {
                    "indexed": true,
                    "internalType": "address",
                    "name": "postOwner",
                    "type": "address"
                },
                {
                    "indexed": true,
                    "internalType": "bytes32",
                    "name": "parentId",
                    "type": "bytes32"
                },
                {
                    "indexed": false,
                    "internalType": "bytes32",
                    "name": "contentId",
                    "type": "bytes32"
                },
                {
                    "indexed": false,
                    "internalType": "bytes32",
                    "name": "categoryId",
                    "type": "bytes32"
                }
            ],
            "name": "PostCreated",
            "type": "event"
        },
        {
            "anonymous": false,
            "inputs": [
                {
                    "indexed": true,
                    "internalType": "address",
                    "name": "from",
                    "type": "address"
                },
                {
                    "indexed": true,
                    "internalType": "address",
                    "name": "to",
                    "type": "address"
                },
                {
                    "indexed": false,
                    "internalType": "uint256",
                    "name": "value",
                    "type": "uint256"
                }
            ],
            "name": "Transfer",
            "type": "event"
        },
        {
            "anonymous": false,
            "inputs": [
                {
                    "indexed": true,
                    "internalType": "bytes32",
                    "name": "postId",
                    "type": "bytes32"
                },
                {
                    "indexed": true,
                    "internalType": "address",
                    "name": "postOwner",
                    "type": "address"
                },
                {
                    "indexed": true,
                    "internalType": "address",
                    "name": "voter",
                    "type": "address"
                },
                {
                    "indexed": false,
                    "internalType": "uint80",
                    "name": "reputationPostOwner",
                    "type": "uint80"
                },
                {
                    "indexed": false,
                    "internalType": "uint80",
                    "name": "reputationVoter",
                    "type": "uint80"
                },
                {
                    "indexed": false,
                    "internalType": "int40",
                    "name": "postVotes",
                    "type": "int40"
                },
                {
                    "indexed": false,
                    "internalType": "bool",
                    "name": "up",
                    "type": "bool"
                },
                {
                    "indexed": false,
                    "internalType": "uint8",
                    "name": "reputationAmount",
                    "type": "uint8"
                }
            ],
            "name": "Voted",
            "type": "event"
        },
        {
            "inputs": [],
            "name": "_totalSupply",
            "outputs": [
                {
                    "internalType": "uint256",
                    "name": "",
                    "type": "uint256"
                }
            ],
            "stateMutability": "view",
            "type": "function"
        },
        {
            "inputs": [
                {
                    "internalType": "string",
                    "name": "_category",
                    "type": "string"
                }
            ],
            "name": "addCategory",
            "outputs": [],
            "stateMutability": "nonpayable",
            "type": "function"
        },
        {
            "inputs": [
                {
                    "internalType": "address",
                    "name": "tokenOwner",
                    "type": "address"
                },
                {
                    "internalType": "address",
                    "name": "spender",
                    "type": "address"
                }
            ],
            "name": "allowance",
            "outputs": [
                {
                    "internalType": "uint256",
                    "name": "remaining",
                    "type": "uint256"
                }
            ],
            "stateMutability": "view",
            "type": "function"
        },
        {
            "inputs": [
                {
                    "internalType": "address",
                    "name": "spender",
                    "type": "address"
                },
                {
                    "internalType": "uint256",
                    "name": "tokens",
                    "type": "uint256"
                }
            ],
            "name": "approve",
            "outputs": [
                {
                    "internalType": "bool",
                    "name": "success",
                    "type": "bool"
                }
            ],
            "stateMutability": "nonpayable",
            "type": "function"
        },
        {
            "inputs": [
                {
                    "internalType": "address",
                    "name": "tokenOwner",
                    "type": "address"
                }
            ],
            "name": "balanceOf",
            "outputs": [
                {
                    "internalType": "uint256",
                    "name": "balance",
                    "type": "uint256"
                }
            ],
            "stateMutability": "view",
            "type": "function"
        },
        {
            "inputs": [
                {
                    "internalType": "bytes32",
                    "name": "_parentId",
                    "type": "bytes32"
                },
                {
                    "internalType": "string",
                    "name": "_contentUri",
                    "type": "string"
                },
                {
                    "internalType": "bytes32",
                    "name": "_categoryId",
                    "type": "bytes32"
                }
            ],
            "name": "createPost",
            "outputs": [],
            "stateMutability": "nonpayable",
            "type": "function"
        },
        {
            "inputs": [],
            "name": "decimals",
            "outputs": [
                {
                    "internalType": "uint8",
                    "name": "",
                    "type": "uint8"
                }
            ],
            "stateMutability": "view",
            "type": "function"
        },
        {
            "inputs": [
                {
                    "internalType": "bytes32",
                    "name": "_categoryId",
                    "type": "bytes32"
                }
            ],
            "name": "getCategory",
            "outputs": [
                {
                    "internalType": "string",
                    "name": "",
                    "type": "string"
                }
            ],
            "stateMutability": "view",
            "type": "function"
        },
        {
            "inputs": [
                {
                    "internalType": "bytes32",
                    "name": "_contentId",
                    "type": "bytes32"
                }
            ],
            "name": "getContent",
            "outputs": [
                {
                    "internalType": "string",
                    "name": "",
                    "type": "string"
                }
            ],
            "stateMutability": "view",
            "type": "function"
        },
        {
            "inputs": [
                {
                    "internalType": "bytes32",
                    "name": "_postId",
                    "type": "bytes32"
                }
            ],
            "name": "getPost",
            "outputs": [
                {
                    "internalType": "address",
                    "name": "",
                    "type": "address"
                },
                {
                    "internalType": "bytes32",
                    "name": "",
                    "type": "bytes32"
                },
                {
                    "internalType": "bytes32",
                    "name": "",
                    "type": "bytes32"
                },
                {
                    "internalType": "int72",
                    "name": "",
                    "type": "int72"
                },
                {
                    "internalType": "bytes32",
                    "name": "",
                    "type": "bytes32"
                }
            ],
            "stateMutability": "view",
            "type": "function"
        },
        {
            "inputs": [],
            "name": "getPosts",
            "outputs": [
                {
                    "internalType": "bytes32[]",
                    "name": "",
                    "type": "bytes32[]"
                }
            ],
            "stateMutability": "view",
            "type": "function"
        },
        {
            "inputs": [
                {
                    "internalType": "address",
                    "name": "_address",
                    "type": "address"
                },
                {
                    "internalType": "bytes32",
                    "name": "_categoryID",
                    "type": "bytes32"
                }
            ],
            "name": "getReputation",
            "outputs": [
                {
                    "internalType": "uint80",
                    "name": "",
                    "type": "uint80"
                }
            ],
            "stateMutability": "view",
            "type": "function"
        },
        {
            "inputs": [],
            "name": "manager",
            "outputs": [
                {
                    "internalType": "address",
                    "name": "",
                    "type": "address"
                }
            ],
            "stateMutability": "view",
            "type": "function"
        },
        {
            "inputs": [],
            "name": "name",
            "outputs": [
                {
                    "internalType": "string",
                    "name": "",
                    "type": "string"
                }
            ],
            "stateMutability": "view",
            "type": "function"
        },
        {
            "inputs": [
                {
                    "internalType": "uint256",
                    "name": "",
                    "type": "uint256"
                }
            ],
            "name": "rootPosts",
            "outputs": [
                {
                    "internalType": "bytes32",
                    "name": "",
                    "type": "bytes32"
                }
            ],
            "stateMutability": "view",
            "type": "function"
        },
        {
            "inputs": [],
            "name": "symbol",
            "outputs": [
                {
                    "internalType": "string",
                    "name": "",
                    "type": "string"
                }
            ],
            "stateMutability": "view",
            "type": "function"
        },
        {
            "inputs": [],
            "name": "totalSupply",
            "outputs": [
                {
                    "internalType": "uint256",
                    "name": "",
                    "type": "uint256"
                }
            ],
            "stateMutability": "view",
            "type": "function"
        },
        {
            "inputs": [
                {
                    "internalType": "address",
                    "name": "to",
                    "type": "address"
                },
                {
                    "internalType": "uint256",
                    "name": "tokens",
                    "type": "uint256"
                }
            ],
            "name": "transfer",
            "outputs": [
                {
                    "internalType": "bool",
                    "name": "success",
                    "type": "bool"
                }
            ],
            "stateMutability": "nonpayable",
            "type": "function"
        },
        {
            "inputs": [
                {
                    "internalType": "address",
                    "name": "from",
                    "type": "address"
                },
                {
                    "internalType": "address",
                    "name": "to",
                    "type": "address"
                },
                {
                    "internalType": "uint256",
                    "name": "tokens",
                    "type": "uint256"
                }
            ],
            "name": "transferFrom",
            "outputs": [
                {
                    "internalType": "bool",
                    "name": "success",
                    "type": "bool"
                }
            ],
            "stateMutability": "nonpayable",
            "type": "function"
        },
        {
            "inputs": [
                {
                    "internalType": "bytes32",
                    "name": "_postId",
                    "type": "bytes32"
                },
                {
                    "internalType": "uint8",
                    "name": "_reputationTaken",
                    "type": "uint8"
                }
            ],
            "name": "voteDown",
            "outputs": [],
            "stateMutability": "nonpayable",
            "type": "function"
        },
        {
            "inputs": [
                {
                    "internalType": "bytes32",
                    "name": "_postId",
                    "type": "bytes32"
                },
                {
                    "internalType": "uint8",
                    "name": "_reputationAdded",
                    "type": "uint8"
                }
            ],
            "name": "voteUp",
            "outputs": [],
            "stateMutability": "nonpayable",
            "type": "function"
        }
    ],
    "bytecode": "60806040523480156200001157600080fd5b5060408051808201909152600380825262504e4760e81b60209092019182526200003e91600091620000f5565b5060408051808201909152600f8082526e2830b733b2b0902220a79021b7b4b760891b60209092019182526200007791600191620000f5565b506002805460ff19169055620186a06003819055600480546001600160a01b031916329081179091556000818152600b602052604080822084905551919290917fddf252ad1be2c89b69c2b068fc378daa952ba7f163c4a11628f55a4df523b3ef91620000e79190815260200190565b60405180910390a3620001d8565b82805462000103906200019b565b90600052602060002090601f01602090048101928262000127576000855562000172565b82601f106200014257805160ff191683800117855562000172565b8280016001018555821562000172579182015b828111156200017257825182559160200191906001019062000155565b506200018092915062000184565b5090565b5b8082111562000180576000815560010162000185565b600181811c90821680620001b057607f821691505b60208210811415620001d257634e487b7160e01b600052602260045260246000fd5b50919050565b61187780620001e86000396000f3fe608060405234801561001057600080fd5b50600436106101375760003560e01c8063481c6a75116100b857806395d89b411161007c57806395d89b4114610315578063a9059cbb1461031d578063b2fae27214610330578063dd62ed3e14610387578063e1957bf3146103c0578063f2287b3e146103d357600080fd5b8063481c6a751461021e57806352088d1d146102495780635cc150011461025c57806370a082311461026f57806393e43bbe1461029857600080fd5b8063313ce567116100ff578063313ce567146101bb57806333032b09146101da5780633eaaf86b146101ed57806341f3004a146101f6578063473b084c1461020b57600080fd5b806306fdde031461013c578063095ea7b31461015a57806318160ddd1461017d57806323b872dd146101935780632e0dcbf7146101a6575b600080fd5b6101446103e6565b60405161015191906112a7565b60405180910390f35b61016d610168366004611318565b610474565b6040519015158152602001610151565b6101856104e1565b604051908152602001610151565b61016d6101a1366004611342565b61051f565b6101b96101b43660046113c7565b61068a565b005b6002546101c89060ff1681565b60405160ff9091168152602001610151565b6101b96101e8366004611409565b61079c565b61018560035481565b6101fe61095a565b604051610151919061145c565b6101446102193660046114a0565b6109b2565b600454610231906001600160a01b031681565b6040516001600160a01b039091168152602001610151565b6101856102573660046114a0565b610a54565b61014461026a3660046114a0565b610a75565b61018561027d3660046114b9565b6001600160a01b03166000908152600b602052604090205490565b6102e06102a63660046114a0565b600090815260096020526040902080546001820154600283015460038401546004948501546001600160a01b039094169592949193910b91565b604080516001600160a01b03909616865260208601949094529284019190915260080b6060830152608082015260a001610151565b610144610a92565b61016d61032b366004611318565b610a9f565b61036f61033e366004611318565b6001600160a01b0391909116600090815260066020908152604080832093835292905220546001600160501b031690565b6040516001600160501b039091168152602001610151565b6101856103953660046114d4565b6001600160a01b039182166000908152600c6020908152604080832093909416825291909152205490565b6101b96103ce366004611507565b610b95565b6101b96103e1366004611507565b610e91565b600180546103f39061153d565b80601f016020809104026020016040519081016040528092919081815260200182805461041f9061153d565b801561046c5780601f106104415761010080835404028352916020019161046c565b820191906000526020600020905b81548152906001019060200180831161044f57829003601f168201915b505050505081565b336000818152600c602090815260408083206001600160a01b038716808552925280832085905551919290917f8c5be1e5ebec7d5bd14f71427d1e84f3dd0314c0f7b2291e5b200ac8c7c3b925906104cf9086815260200190565b60405180910390a35060015b92915050565b6000808052600b6020527fdf7de25b7f1fd6d0b5205f0e18f1f35bd7b8d84cce336588d184533ce43a6f765460035461051a919061158e565b905090565b6001600160a01b0383166000908152600b602052604081205482111561058c5760405162461bcd60e51b815260206004820152601d60248201527f6e6f7420656e6f75676820746f6b656e7320746f207472616e7366657200000060448201526064015b60405180910390fd5b6001600160a01b0384166000908152600b60205260409020546105af9083611163565b6001600160a01b0385166000908152600b6020908152604080832093909355600c8152828220338352905220546105e69083611163565b6001600160a01b038086166000908152600c602090815260408083203384528252808320949094559186168152600b90915220546106249083611176565b6001600160a01b038085166000818152600b602052604090819020939093559151908616907fddf252ad1be2c89b69c2b068fc378daa952ba7f163c4a11628f55a4df523b3ef906106789086815260200190565b60405180910390a35060019392505050565b6004546001600160a01b031633146107155760405162461bcd60e51b815260206004820152604260248201527f4f6e6c7920746865206d616e616765722063616e20637265617465204361746560448201527f676f726965732c2070726f706f73652061206e6577206f6e6520746f20766f74606482015261652160f01b608482015260a401610583565b6000828260405160200161072a9291906115a5565b60408051601f19818403018152918152815160209283012060008181526007909352912090915061075c90848461120e565b50807f42588c2617ffb1b380decf15f2134bd59bb002295bda52fe6e5bf92fc504d249848460405161078f9291906115a5565b60405180910390a2505050565b336000818152600b60205260409020546107c85760405162461bcd60e51b8152600401610583906115d4565b600084846040516020016107dd9291906115a5565b60408051808303601f190181528282528051602091820120606086901b6bffffffffffffffffffffffff191682850152603484018a905260548085018290528351808603909101815260749094018352835193820193909320600084815260089092529190209192509061085290878761120e565b50600081815260096020526040902080546001600160a01b0319166001600160a01b0385161781556001810188905560028101839055600401849055866108c957600580546001810182556000919091527f036b6384b5eca791c62761152d0c79bb0604c104a5fb6f4eb0703f3154bb3db0018190555b817ffb281bb05c5ef4b3a5f374fffc0b351fe69873776a9d6c289682e1929cb4f08087876040516108fb9291906115a5565b60405180910390a286836001600160a01b0316827fdd56be40fa15d802b8ddf46fb1480b3bef291828e21d8c168f8f96368716d7e48588604051610949929190918252602082015260400190565b60405180910390a450505050505050565b606060058054806020026020016040519081016040528092919081815260200182805480156109a857602002820191906000526020600020905b815481526020019060010190808311610994575b5050505050905090565b60008181526007602052604090208054606091906109cf9061153d565b80601f01602080910402602001604051908101604052809291908181526020018280546109fb9061153d565b8015610a485780601f10610a1d57610100808354040283529160200191610a48565b820191906000526020600020905b815481529060010190602001808311610a2b57829003601f168201915b50505050509050919050565b60058181548110610a6457600080fd5b600091825260209091200154905081565b60008181526008602052604090208054606091906109cf9061153d565b600080546103f39061153d565b336000908152600b6020526040812054821115610afe5760405162461bcd60e51b815260206004820152601d60248201527f6e6f7420656e6f75676820746f6b656e7320746f207472616e736665720000006044820152606401610583565b336000908152600b6020526040902054610b189083611163565b336000908152600b6020526040808220929092556001600160a01b03851681522054610b449083611176565b6001600160a01b0384166000818152600b60205260409081902092909255905133907fddf252ad1be2c89b69c2b068fc378daa952ba7f163c4a11628f55a4df523b3ef906104cf9086815260200190565b336000818152600b6020526040902054610bc15760405162461bcd60e51b8152600401610583906115d4565b6000838152600960209081526040808320600481015490546001600160a01b038681168652600a8552838620898752909452919093205491169060ff1615610c1b5760405162461bcd60e51b81526004016105839061160b565b610c26838386611182565b1515600114610c9d5760405162461bcd60e51b815260206004820152603960248201527f5468697320616464726573732063616e6e6f742074616b65207468697320616d60448201527f6f756e74206f662072657075746174696f6e20706f696e7473000000000000006064820152608401610583565b6000858152600960205260408120600301805460019290610cc290849060040b61164c565b825464ffffffffff9182166101009390930a9283029190920219909116179055506001600160a01b038116600090815260066020908152604080832085845290915290205460ff85166001600160501b039091161015610d55576001600160a01b03811660009081526006602090815260408083208584529091528120805469ffffffffffffffffffff19169055610db8565b6001600160a01b03811660009081526006602090815260408083208584529091528120805460ff87169290610d949084906001600160501b0316611698565b92506101000a8154816001600160501b0302191690836001600160501b0316021790555b506001600160a01b038381166000818152600a602090815260408083208a84528252808320805460ff1916600117905593851680835260068083528584208885528352858420548585529083528584208885528352858420548b8552600984528685206003015487516001600160501b039384168152929091169382019390935260049290920b94820194909452606081019190915260ff8716608082015290919087907f01d21e353645a36d22513edbfe86f2d524130c25320a11ed375056ea54b427af9060a0015b60405180910390a45050505050565b336000818152600b6020526040902054610ebd5760405162461bcd60e51b8152600401610583906115d4565b6000838152600960205260409020600481015490546001600160a01b03908116908316811415610f2f5760405162461bcd60e51b815260206004820152601e60248201527f796f752063616e6e6f7420766f746520796f7572206f776e20706f73747300006044820152606401610583565b6001600160a01b0383166000908152600a6020908152604080832088845290915290205460ff1615610f735760405162461bcd60e51b81526004016105839061160b565b610f7e838386611182565b1515600114610ff55760405162461bcd60e51b815260206004820152603860248201527f5468697320616464726573732063616e6e6f7420616464207468697320616d6f60448201527f756e74206f662072657075746174696f6e20706f696e747300000000000000006064820152608401610583565b600085815260096020526040812060030180546001929061101a90849060040b6116c0565b825464ffffffffff9182166101009390930a9283029190920219909116179055506001600160a01b03811660009081526006602090815260408083208584529091528120805460ff8716929061107a9084906001600160501b031661170b565b82546101009290920a6001600160501b038181021990931691831602179091556001600160a01b038581166000818152600a602090815260408083208c84528252808320805460ff1916600190811790915594881680845260068084528285208b86528452828520548686529084528285208b86528452828520548e865260098552948390206003015483519189168252949097169287019290925260049290920b91850191909152606084019290925260ff8816608084015292509087907f01d21e353645a36d22513edbfe86f2d524130c25320a11ed375056ea54b427af9060a001610e82565b600061116f828461158e565b9392505050565b600061116f8284611736565b6001600160a01b03831660009081526006602090815260408083208584529091528120546001600160501b031660028110156111d9578260ff166001146111cd5760009150816111d3565b60019150815b50611206565b6001600160501b0381166111ee846002611832565b11156111fe576000915081611204565b60019150815b505b509392505050565b82805461121a9061153d565b90600052602060002090601f01602090048101928261123c5760008555611282565b82601f106112555782800160ff19823516178555611282565b82800160010185558215611282579182015b82811115611282578235825591602001919060010190611267565b5061128e929150611292565b5090565b5b8082111561128e5760008155600101611293565b600060208083528351808285015260005b818110156112d4578581018301518582016040015282016112b8565b818111156112e6576000604083870101525b50601f01601f1916929092016040019392505050565b80356001600160a01b038116811461131357600080fd5b919050565b6000806040838503121561132b57600080fd5b611334836112fc565b946020939093013593505050565b60008060006060848603121561135757600080fd5b611360846112fc565b925061136e602085016112fc565b9150604084013590509250925092565b60008083601f84011261139057600080fd5b50813567ffffffffffffffff8111156113a857600080fd5b6020830191508360208285010111156113c057600080fd5b9250929050565b600080602083850312156113da57600080fd5b823567ffffffffffffffff8111156113f157600080fd5b6113fd8582860161137e565b90969095509350505050565b6000806000806060858703121561141f57600080fd5b84359350602085013567ffffffffffffffff81111561143d57600080fd5b6114498782880161137e565b9598909750949560400135949350505050565b6020808252825182820181905260009190848201906040850190845b8181101561149457835183529284019291840191600101611478565b50909695505050505050565b6000602082840312156114b257600080fd5b5035919050565b6000602082840312156114cb57600080fd5b61116f826112fc565b600080604083850312156114e757600080fd5b6114f0836112fc565b91506114fe602084016112fc565b90509250929050565b6000806040838503121561151a57600080fd5b82359150602083013560ff8116811461153257600080fd5b809150509250929050565b600181811c9082168061155157607f821691505b6020821081141561157257634e487b7160e01b600052602260045260246000fd5b50919050565b634e487b7160e01b600052601160045260246000fd5b6000828210156115a0576115a0611578565b500390565b60208152816020820152818360408301376000818301604090810191909152601f909201601f19160101919050565b60208082526019908201527f596f7520646f6e2774206861766520616e7920746f6b656e7300000000000000604082015260600190565b60208082526021908201527f53656e64657220616c726561647920766f74656420696e207468697320706f736040820152601d60fa1b606082015260800190565b60008160040b8360040b6000811281647fffffffff190183128115161561167557611675611578565b81647fffffffff01831381161561168e5761168e611578565b5090039392505050565b60006001600160501b03838116908316818110156116b8576116b8611578565b039392505050565b60008160040b8360040b6000821282647fffffffff038213811516156116e8576116e8611578565b82647fffffffff1903821281161561170257611702611578565b50019392505050565b60006001600160501b0380831681851680830382111561172d5761172d611578565b01949350505050565b6000821982111561174957611749611578565b500190565b600181815b8085111561178957816000190482111561176f5761176f611578565b8085161561177c57918102915b93841c9390800290611753565b509250929050565b6000826117a0575060016104db565b816117ad575060006104db565b81600181146117c357600281146117cd576117e9565b60019150506104db565b60ff8411156117de576117de611578565b50506001821b6104db565b5060208310610133831016604e8410600b841016171561180c575081810a6104db565b611816838361174e565b806000190482111561182a5761182a611578565b029392505050565b600061116f60ff84168361179156fea2646970667358221220b3c85302a70dfca49354934215e402ec5be73a6f517326f163c38a2248dee1b864736f6c634300080c0033",
    "sourcePath": "c:/Work/DAO/ethereum/contracts/PangeaVotes.sol",
    "compiler": {
        "name": "solc",
        "version": "0.8.12+commit.f00d7308"
    },
    "functionHashes": {
        "_totalSupply()": "3eaaf86b",
        "addCategory(string)": "2e0dcbf7",
        "allowance(address,address)": "dd62ed3e",
        "approve(address,uint256)": "095ea7b3",
        "balanceOf(address)": "70a08231",
        "createPost(bytes32,string,bytes32)": "33032b09",
        "decimals()": "313ce567",
        "getCategory(bytes32)": "473b084c",
        "getContent(bytes32)": "5cc15001",
        "getPost(bytes32)": "93e43bbe",
        "getPosts()": "41f3004a",
        "getReputation(address,bytes32)": "b2fae272",
        "manager()": "481c6a75",
        "name()": "06fdde03",
        "rootPosts(uint256)": "52088d1d",
        "symbol()": "95d89b41",
        "totalSupply()": "18160ddd",
        "transfer(address,uint256)": "a9059cbb",
        "transferFrom(address,address,uint256)": "23b872dd",
        "voteDown(bytes32,uint8)": "e1957bf3",
        "voteUp(bytes32,uint8)": "f2287b3e"
    },
    "gasEstimates": {
        "creation": {
            "codeDepositCost": "1252600",
            "executionCost": "infinite",
            "totalCost": "infinite"
        },
        "external": {
            "_totalSupply()": "2362",
            "addCategory(string)": "infinite",
            "allowance(address,address)": "infinite",
            "approve(address,uint256)": "24546",
            "balanceOf(address)": "2626",
            "createPost(bytes32,string,bytes32)": "infinite",
            "decimals()": "2336",
            "getCategory(bytes32)": "infinite",
            "getContent(bytes32)": "infinite",
            "getPost(bytes32)": "11148",
            "getPosts()": "infinite",
            "getReputation(address,bytes32)": "2741",
            "manager()": "2360",
            "name()": "infinite",
            "rootPosts(uint256)": "4620",
            "symbol()": "infinite",
            "totalSupply()": "4571",
            "transfer(address,uint256)": "infinite",
            "transferFrom(address,address,uint256)": "infinite",
            "voteDown(bytes32,uint8)": "11956",
            "voteUp(bytes32,uint8)": "12022"
        },
        "internal": {
            "validateReputationChange(address,bytes32,uint8)": "2628"
        }
    }
}